:10000000BEC0D8C0D7C0D6C0D5C0D4C0D3C0D3C05E
:10001000D1C0D0C0CFC0CEC0CDC0CCC0CBC0CAC074
:10002000C9C0C8C0C7C00F0F0F0F000000000000FC
:1000300000000F0F0F0FF0F0F0F0000000000000C4
:100040000000F0F0F0F010001080E0F0E070200010
:100050002040C1F0C1384100412882F08214832041
:10006000831C04D0040207D0070E080208010F0207
:100070000F0F000D00000F000000000000F0000F47
:1000800000000000F00000000F0000F00000000081
:10009000000FF0000000F00000000000000F000062
:1000A00000F00F000000FF0F0F0FFF00000000FF27
:1000B00000000FFF0F0FF0F0FFF00000FF00000046
:1000C00000FFF0F0F0FFF0F0FFF00000FF0000FF95
:1000D00000000FFF0F0F0F0F0F0F000000000000B8
:1000E00000000F0F0F0FF0F0F0F000000000000014
:1000F0000000F0F0F0F0F0F0F0F000000000000080
:1001000000000F0F0F0FFF000000FF000000FFFFB7
:100110000000FFFF0000FFFFFF00FFFFFF00FFFFE9
:10012000FFFFFFFFFFFFFFFFFF00FFFFFF00FFFFDD
:100130000000FFFF0000000000000000000011119F
:1001400011111111111122222222222222224444B1
:10015000444444444444888888888888888844443F
:100160004444444444442222222222222222FFFFE9
:10017000FFFFFFFFFFFF0000000000000000112450
:100180001FBECFE5D4E0DEBFCDBF10E0A0E6B0E0FB
:10019000E6EBF4E002C005900D92AA36B107D9F75C
:1001A00010E0AAE6B0E001C01D92A337B107E1F765
:1001B00027D07FC125CF1F920F920FB60F92112427
:1001C0002F933F934F935F936F937F938F939F935F
:1001D000AF93BF93EF93FF9391D01DBC1CBCFF91D5
:1001E000EF91BF91AF919F918F917F916F915F91AF
:1001F0004F913F912F910F900FBE0F901F90189528
:1002000004D01DD02AD029D0FDCF84B38F6084BB09
:100210008FEF87BB81BB15BA88BB82BBE6EBF1E0F1
:10022000F0936B00E0936A0081E691E090936D009B
:1002300080936C00099588E080937100089578940C
:1002400089B7886089BF88E99AE399BD88BD1DBCDC
:100250001CBC8EB582608EBD08954091680050919F
:100260006900E8E5F0E020E030E0A1E0B0E06AEF0E
:1002700070E00EC0808585BBCB010197F1F715BA00
:100280002F5F3F4F31964FEF5FEF20313105A1F0E7
:10029000CD01022E02C0880F991F0A94E2F78095C3
:1002A00090958423952388BB92BB283018F38081D6
:1002B00082958F7085BBE0CF5093690040936800B2
:1002C0000895A0E6B0E0FD01119240E0E836F407A1
:1002D000D9F720916E0030916F0090917200892FB4
:1002E000F901E80FF11DE491ED938F5F40E0A8362E
:1002F000B407B1F7985F909372000895E0916C0095
:10030000F0916D00099590917000809172008917AD
:1003100020F11092720080917100815080937100E1
:100320008823D9F488E080937100E0E6F0E0119230
:1003300080E0E836F807D9F71092720088E99AE36E
:1003400099BD88BDE0916A00F0916B00099581E646
:1003500091E090936D0080936C000895E0E6F0E0EA
:10036000119280E0E836F807D9F7089580E180938C
:1003700070008EE691E090936F0080936E0086ECA3
:1003800091E090936B0080936A00089580E38093DE
:1003900070008EE391E090936F0080936E0086ED85
:1003A00091E090936B0080936A00089588E38093B6
:1003B000700086E091E090936F0080936E0086EE6F
:1003C00091E090936B0080936A00089580E380939E
:1003D000700086ED90E090936F0080936E0086EF42
:1003E00091E090936B0080936A00089580E380937E
:1003F000700086EA90E090936F0080936E0086E034
:1004000092E090936B0080936A00089580E380935C
:10041000700086E790E090936F0080936E0086E115
:1004200092E090936B0080936A00089580E580933A
:10043000700084E08093710088ED96ED99BD88BDD1
:1004400086E290E090936F0080936E008DE292E0E0
:1004500090936B0080936A00089580E88093700009
:1004600081E492E090936D0080936C0088ED96EDAE
:1004700099BD88BD86EB91E090936B0080936A00F4
:1004800008952091720081E090E0022E02C0880F52
:10049000991F0A94E2F7982FE0E6F0E08081892B1B
:1004A000819380E0E836F807C9F72F5F2093720048
:0604B0000895F894FFCF4F
:0A04B6008888888888888888FFFFFE
:00000001FF
